{"abi":[{"type":"function","name":"getDocumentCount","inputs":[],"outputs":[{"name":"","type":"uint256","internalType":"uint256"}],"stateMutability":"view"},{"type":"function","name":"getDocumentHashByIndex","inputs":[{"name":"_index","type":"uint256","internalType":"uint256"}],"outputs":[{"name":"","type":"bytes32","internalType":"bytes32"}],"stateMutability":"view"},{"type":"function","name":"getDocumentInfo","inputs":[{"name":"_hash","type":"bytes32","internalType":"bytes32"}],"outputs":[{"name":"","type":"tuple","internalType":"struct DocumentRegistry.Document","components":[{"name":"hash","type":"bytes32","internalType":"bytes32"},{"name":"timestamp","type":"uint256","internalType":"uint256"},{"name":"signer","type":"address","internalType":"address"},{"name":"signature","type":"bytes","internalType":"bytes"}]}],"stateMutability":"view"},{"type":"function","name":"isDocumentStored","inputs":[{"name":"_hash","type":"bytes32","internalType":"bytes32"}],"outputs":[{"name":"","type":"bool","internalType":"bool"}],"stateMutability":"view"},{"type":"function","name":"storeDocumentHash","inputs":[{"name":"_hash","type":"bytes32","internalType":"bytes32"},{"name":"_timestamp","type":"uint256","internalType":"uint256"},{"name":"_signature","type":"bytes","internalType":"bytes"},{"name":"_signer","type":"address","internalType":"address"}],"outputs":[],"stateMutability":"nonpayable"},{"type":"function","name":"verifyDocument","inputs":[{"name":"_hash","type":"bytes32","internalType":"bytes32"},{"name":"_signer","type":"address","internalType":"address"},{"name":"_signature","type":"bytes","internalType":"bytes"}],"outputs":[{"name":"","type":"bool","internalType":"bool"}],"stateMutability":"view"},{"type":"event","name":"DocumentStored","inputs":[{"name":"hash","type":"bytes32","indexed":true,"internalType":"bytes32"},{"name":"signer","type":"address","indexed":true,"internalType":"address"},{"name":"timestamp","type":"uint256","indexed":false,"internalType":"uint256"}],"anonymous":false}],"bytecode":{"object":"0x6080604052348015600e575f5ffd5b506111468061001c5f395ff3fe608060405234801561000f575f5ffd5b5060043610610060575f3560e01c8063090b0a30146100645780633d1c22731461009457806346fad899146100b2578063757d2c6b146100e25780639f788d10146100fe578063dd4ad4b61461012e575b5f5ffd5b61007e60048036038101906100799190610794565b61015e565b60405161008b91906108f5565b60405180910390f35b61009c610322565b6040516100a99190610924565b60405180910390f35b6100cc60048036038101906100c79190610794565b61032e565b6040516100d99190610957565b60405180910390f35b6100fc60048036038101906100f79190610af0565b610398565b005b61011860048036038101906101139190610b70565b61056d565b6040516101259190610baa565b60405180910390f35b61014860048036038101906101439190610bc3565b6105d9565b6040516101559190610957565b60405180910390f35b610166610715565b815f73ffffffffffffffffffffffffffffffffffffffff165f5f8381526020019081526020015f206002015f9054906101000a900473ffffffffffffffffffffffffffffffffffffffff1673ffffffffffffffffffffffffffffffffffffffff1603610207576040517f08c379a00000000000000000000000000000000000000000000000000000000081526004016101fe90610c89565b60405180910390fd5b5f5f8481526020019081526020015f206040518060800160405290815f820154815260200160018201548152602001600282015f9054906101000a900473ffffffffffffffffffffffffffffffffffffffff1673ffffffffffffffffffffffffffffffffffffffff1673ffffffffffffffffffffffffffffffffffffffff16815260200160038201805461029a90610cd4565b80601f01602080910402602001604051908101604052809291908181526020018280546102c690610cd4565b80156103115780601f106102e857610100808354040283529160200191610311565b820191905f5260205f20905b8154815290600101906020018083116102f457829003601f168201915b505050505081525050915050919050565b5f600180549050905090565b5f5f73ffffffffffffffffffffffffffffffffffffffff165f5f8481526020019081526020015f206002015f9054906101000a900473ffffffffffffffffffffffffffffffffffffffff1673ffffffffffffffffffffffffffffffffffffffff1614159050919050565b835f73ffffffffffffffffffffffffffffffffffffffff165f5f8381526020019081526020015f206002015f9054906101000a900473ffffffffffffffffffffffffffffffffffffffff1673ffffffffffffffffffffffffffffffffffffffff1614610439576040517f08c379a000000000000000000000000000000000000000000000000000000000815260040161043090610d4e565b60405180910390fd5b60405180608001604052808681526020018581526020018373ffffffffffffffffffffffffffffffffffffffff168152602001848152505f5f8781526020019081526020015f205f820151815f0155602082015181600101556040820151816002015f6101000a81548173ffffffffffffffffffffffffffffffffffffffff021916908373ffffffffffffffffffffffffffffffffffffffff16021790555060608201518160030190816104ed9190610f0c565b50905050600185908060018154018082558091505060019003905f5260205f20015f90919091909150558173ffffffffffffffffffffffffffffffffffffffff16857f26ad08a07a21a75bfa696129b53a22d710a416ca3941ed4110a27e41c2ac679a8660405161055e9190610924565b60405180910390a35050505050565b5f60018054905082106105b5576040517f08c379a00000000000000000000000000000000000000000000000000000000081526004016105ac90611025565b60405180910390fd5b600182815481106105c9576105c8611043565b5b905f5260205f2001549050919050565b5f835f73ffffffffffffffffffffffffffffffffffffffff165f5f8381526020019081526020015f206002015f9054906101000a900473ffffffffffffffffffffffffffffffffffffffff1673ffffffffffffffffffffffffffffffffffffffff160361067b576040517f08c379a000000000000000000000000000000000000000000000000000000000815260040161067290610c89565b60405180910390fd5b5f5f5f8781526020019081526020015f2090508473ffffffffffffffffffffffffffffffffffffffff16816002015f9054906101000a900473ffffffffffffffffffffffffffffffffffffffff1673ffffffffffffffffffffffffffffffffffffffff1614801561070a575083805190602001208160030160405161070091906110fa565b6040518091039020145b925050509392505050565b60405180608001604052805f81526020015f81526020015f73ffffffffffffffffffffffffffffffffffffffff168152602001606081525090565b5f604051905090565b5f5ffd5b5f5ffd5b5f819050919050565b61077381610761565b811461077d575f5ffd5b50565b5f8135905061078e8161076a565b92915050565b5f602082840312156107a9576107a8610759565b5b5f6107b684828501610780565b91505092915050565b6107c881610761565b82525050565b5f819050919050565b6107e0816107ce565b82525050565b5f73ffffffffffffffffffffffffffffffffffffffff82169050919050565b5f61080f826107e6565b9050919050565b61081f81610805565b82525050565b5f81519050919050565b5f82825260208201905092915050565b8281835e5f83830152505050565b5f601f19601f8301169050919050565b5f61086782610825565b610871818561082f565b935061088181856020860161083f565b61088a8161084d565b840191505092915050565b5f608083015f8301516108aa5f8601826107bf565b5060208301516108bd60208601826107d7565b5060408301516108d06040860182610816565b50606083015184820360608601526108e8828261085d565b9150508091505092915050565b5f6020820190508181035f83015261090d8184610895565b905092915050565b61091e816107ce565b82525050565b5f6020820190506109375f830184610915565b92915050565b5f8115159050919050565b6109518161093d565b82525050565b5f60208201905061096a5f830184610948565b92915050565b610979816107ce565b8114610983575f5ffd5b50565b5f8135905061099481610970565b92915050565b5f5ffd5b5f5ffd5b7f4e487b71000000000000000000000000000000000000000000000000000000005f52604160045260245ffd5b6109d88261084d565b810181811067ffffffffffffffff821117156109f7576109f66109a2565b5b80604052505050565b5f610a09610750565b9050610a1582826109cf565b919050565b5f67ffffffffffffffff821115610a3457610a336109a2565b5b610a3d8261084d565b9050602081019050919050565b828183375f83830152505050565b5f610a6a610a6584610a1a565b610a00565b905082815260208101848484011115610a8657610a8561099e565b5b610a91848285610a4a565b509392505050565b5f82601f830112610aad57610aac61099a565b5b8135610abd848260208601610a58565b91505092915050565b610acf81610805565b8114610ad9575f5ffd5b50565b5f81359050610aea81610ac6565b92915050565b5f5f5f5f60808587031215610b0857610b07610759565b5b5f610b1587828801610780565b9450506020610b2687828801610986565b935050604085013567ffffffffffffffff811115610b4757610b4661075d565b5b610b5387828801610a99565b9250506060610b6487828801610adc565b91505092959194509250565b5f60208284031215610b8557610b84610759565b5b5f610b9284828501610986565b91505092915050565b610ba481610761565b82525050565b5f602082019050610bbd5f830184610b9b565b92915050565b5f5f5f60608486031215610bda57610bd9610759565b5b5f610be786828701610780565b9350506020610bf886828701610adc565b925050604084013567ffffffffffffffff811115610c1957610c1861075d565b5b610c2586828701610a99565b9150509250925092565b5f82825260208201905092915050565b7f446f63756d656e7420646f6573206e6f742065786973740000000000000000005f82015250565b5f610c73601783610c2f565b9150610c7e82610c3f565b602082019050919050565b5f6020820190508181035f830152610ca081610c67565b9050919050565b7f4e487b71000000000000000000000000000000000000000000000000000000005f52602260045260245ffd5b5f6002820490506001821680610ceb57607f821691505b602082108103610cfe57610cfd610ca7565b5b50919050565b7f446f63756d656e7420616c7265616479206578697374730000000000000000005f82015250565b5f610d38601783610c2f565b9150610d4382610d04565b602082019050919050565b5f6020820190508181035f830152610d6581610d2c565b9050919050565b5f819050815f5260205f209050919050565b5f6020601f8301049050919050565b5f82821b905092915050565b5f60088302610dc87fffffffffffffffffffffffffffffffffffffffffffffffffffffffffffffffff82610d8d565b610dd28683610d8d565b95508019841693508086168417925050509392505050565b5f819050919050565b5f610e0d610e08610e03846107ce565b610dea565b6107ce565b9050919050565b5f819050919050565b610e2683610df3565b610e3a610e3282610e14565b848454610d99565b825550505050565b5f5f905090565b610e51610e42565b610e5c818484610e1d565b505050565b5b81811015610e7f57610e745f82610e49565b600181019050610e62565b5050565b601f821115610ec457610e9581610d6c565b610e9e84610d7e565b81016020851015610ead578190505b610ec1610eb985610d7e565b830182610e61565b50505b505050565b5f82821c905092915050565b5f610ee45f1984600802610ec9565b1980831691505092915050565b5f610efc8383610ed5565b9150826002028217905092915050565b610f1582610825565b67ffffffffffffffff811115610f2e57610f2d6109a2565b5b610f388254610cd4565b610f43828285610e83565b5f60209050601f831160018114610f74575f8415610f62578287015190505b610f6c8582610ef1565b865550610fd3565b601f198416610f8286610d6c565b5f5b82811015610fa957848901518255600182019150602085019450602081019050610f84565b86831015610fc65784890151610fc2601f891682610ed5565b8355505b6001600288020188555050505b505050505050565b7f496e646578206f7574206f6620626f756e6473000000000000000000000000005f82015250565b5f61100f601383610c2f565b915061101a82610fdb565b602082019050919050565b5f6020820190508181035f83015261103c81611003565b9050919050565b7f4e487b71000000000000000000000000000000000000000000000000000000005f52603260045260245ffd5b5f81905092915050565b5f815461108681610cd4565b6110908186611070565b9450600182165f81146110aa57600181146110bf576110f1565b60ff19831686528115158202860193506110f1565b6110c885610d6c565b5f5b838110156110e9578154818901526001820191506020810190506110ca565b838801955050505b50505092915050565b5f611105828461107a565b91508190509291505056fea26469706673582212204f9d91228d5319ce57231da75c2355663bd4efcb88d8405e21a345f88841f22064736f6c634300081e0033","linkReferences":{}},"methodIdentifiers":{"getDocumentCount()":"3d1c2273","getDocumentHashByIndex(uint256)":"9f788d10","getDocumentInfo(bytes32)":"090b0a30","isDocumentStored(bytes32)":"46fad899","storeDocumentHash(bytes32,uint256,bytes,address)":"757d2c6b","verifyDocument(bytes32,address,bytes)":"dd4ad4b6"},"id":0}